{
  "_format": "hh-sol-artifact-1",
  "contractName": "PunchBaseGame",
  "sourceName": "contracts/PunchBaseGame.sol",
  "abi": [
    {
      "anonymous": false,
      "inputs": [
        {
          "indexed": true,
          "internalType": "uint256",
          "name": "matchId",
          "type": "uint256"
        },
        {
          "indexed": true,
          "internalType": "address",
          "name": "challenger",
          "type": "address"
        },
        {
          "indexed": true,
          "internalType": "address",
          "name": "opponent",
          "type": "address"
        }
      ],
      "name": "ChallengeCreated",
      "type": "event"
    },
    {
      "anonymous": false,
      "inputs": [
        {
          "indexed": true,
          "internalType": "address",
          "name": "owner",
          "type": "address"
        },
        {
          "indexed": false,
          "internalType": "string",
          "name": "name",
          "type": "string"
        }
      ],
      "name": "FighterCreated",
      "type": "event"
    },
    {
      "anonymous": false,
      "inputs": [
        {
          "indexed": true,
          "internalType": "uint256",
          "name": "matchId",
          "type": "uint256"
        },
        {
          "indexed": true,
          "internalType": "address",
          "name": "winner",
          "type": "address"
        }
      ],
      "name": "MatchEnded",
      "type": "event"
    },
    {
      "anonymous": false,
      "inputs": [
        {
          "indexed": true,
          "internalType": "uint256",
          "name": "matchId",
          "type": "uint256"
        },
        {
          "indexed": false,
          "internalType": "address",
          "name": "player1",
          "type": "address"
        },
        {
          "indexed": false,
          "internalType": "address",
          "name": "player2",
          "type": "address"
        }
      ],
      "name": "MatchStarted",
      "type": "event"
    },
    {
      "anonymous": false,
      "inputs": [
        {
          "indexed": true,
          "internalType": "uint256",
          "name": "matchId",
          "type": "uint256"
        },
        {
          "indexed": true,
          "internalType": "address",
          "name": "player",
          "type": "address"
        },
        {
          "indexed": false,
          "internalType": "uint256",
          "name": "action",
          "type": "uint256"
        },
        {
          "indexed": false,
          "internalType": "uint256",
          "name": "damage",
          "type": "uint256"
        }
      ],
      "name": "TurnTaken",
      "type": "event"
    },
    {
      "inputs": [
        {
          "internalType": "uint256",
          "name": "_matchId",
          "type": "uint256"
        }
      ],
      "name": "acceptChallenge",
      "outputs": [],
      "stateMutability": "nonpayable",
      "type": "function"
    },
    {
      "inputs": [
        {
          "internalType": "address",
          "name": "_opponent",
          "type": "address"
        }
      ],
      "name": "challengePlayer",
      "outputs": [],
      "stateMutability": "nonpayable",
      "type": "function"
    },
    {
      "inputs": [
        {
          "internalType": "string",
          "name": "_name",
          "type": "string"
        }
      ],
      "name": "createFighter",
      "outputs": [],
      "stateMutability": "nonpayable",
      "type": "function"
    },
    {
      "inputs": [
        {
          "internalType": "address",
          "name": "",
          "type": "address"
        }
      ],
      "name": "fighters",
      "outputs": [
        {
          "internalType": "address",
          "name": "owner",
          "type": "address"
        },
        {
          "internalType": "string",
          "name": "name",
          "type": "string"
        },
        {
          "internalType": "uint256",
          "name": "health",
          "type": "uint256"
        },
        {
          "internalType": "uint256",
          "name": "attack",
          "type": "uint256"
        },
        {
          "internalType": "uint256",
          "name": "defense",
          "type": "uint256"
        },
        {
          "internalType": "uint256",
          "name": "wins",
          "type": "uint256"
        },
        {
          "internalType": "uint256",
          "name": "losses",
          "type": "uint256"
        },
        {
          "internalType": "bool",
          "name": "exists",
          "type": "bool"
        }
      ],
      "stateMutability": "view",
      "type": "function"
    },
    {
      "inputs": [
        {
          "internalType": "address",
          "name": "_addr",
          "type": "address"
        }
      ],
      "name": "getFighter",
      "outputs": [
        {
          "components": [
            {
              "internalType": "address",
              "name": "owner",
              "type": "address"
            },
            {
              "internalType": "string",
              "name": "name",
              "type": "string"
            },
            {
              "internalType": "uint256",
              "name": "health",
              "type": "uint256"
            },
            {
              "internalType": "uint256",
              "name": "attack",
              "type": "uint256"
            },
            {
              "internalType": "uint256",
              "name": "defense",
              "type": "uint256"
            },
            {
              "internalType": "uint256",
              "name": "wins",
              "type": "uint256"
            },
            {
              "internalType": "uint256",
              "name": "losses",
              "type": "uint256"
            },
            {
              "internalType": "bool",
              "name": "exists",
              "type": "bool"
            }
          ],
          "internalType": "struct PunchBaseGame.Fighter",
          "name": "",
          "type": "tuple"
        }
      ],
      "stateMutability": "view",
      "type": "function"
    },
    {
      "inputs": [
        {
          "internalType": "uint256",
          "name": "_matchId",
          "type": "uint256"
        }
      ],
      "name": "getMatch",
      "outputs": [
        {
          "components": [
            {
              "internalType": "uint256",
              "name": "id",
              "type": "uint256"
            },
            {
              "internalType": "address",
              "name": "player1",
              "type": "address"
            },
            {
              "internalType": "address",
              "name": "player2",
              "type": "address"
            },
            {
              "internalType": "address",
              "name": "turn",
              "type": "address"
            },
            {
              "internalType": "bool",
              "name": "active",
              "type": "bool"
            },
            {
              "internalType": "uint256",
              "name": "player1Health",
              "type": "uint256"
            },
            {
              "internalType": "uint256",
              "name": "player2Health",
              "type": "uint256"
            },
            {
              "internalType": "bool",
              "name": "player1Defending",
              "type": "bool"
            },
            {
              "internalType": "bool",
              "name": "player2Defending",
              "type": "bool"
            },
            {
              "internalType": "address",
              "name": "winner",
              "type": "address"
            }
          ],
          "internalType": "struct PunchBaseGame.Match",
          "name": "",
          "type": "tuple"
        }
      ],
      "stateMutability": "view",
      "type": "function"
    },
    {
      "inputs": [
        {
          "internalType": "uint256",
          "name": "",
          "type": "uint256"
        }
      ],
      "name": "matches",
      "outputs": [
        {
          "internalType": "uint256",
          "name": "id",
          "type": "uint256"
        },
        {
          "internalType": "address",
          "name": "player1",
          "type": "address"
        },
        {
          "internalType": "address",
          "name": "player2",
          "type": "address"
        },
        {
          "internalType": "address",
          "name": "turn",
          "type": "address"
        },
        {
          "internalType": "bool",
          "name": "active",
          "type": "bool"
        },
        {
          "internalType": "uint256",
          "name": "player1Health",
          "type": "uint256"
        },
        {
          "internalType": "uint256",
          "name": "player2Health",
          "type": "uint256"
        },
        {
          "internalType": "bool",
          "name": "player1Defending",
          "type": "bool"
        },
        {
          "internalType": "bool",
          "name": "player2Defending",
          "type": "bool"
        },
        {
          "internalType": "address",
          "name": "winner",
          "type": "address"
        }
      ],
      "stateMutability": "view",
      "type": "function"
    },
    {
      "inputs": [],
      "name": "nextMatchId",
      "outputs": [
        {
          "internalType": "uint256",
          "name": "",
          "type": "uint256"
        }
      ],
      "stateMutability": "view",
      "type": "function"
    },
    {
      "inputs": [
        {
          "internalType": "uint256",
          "name": "_matchId",
          "type": "uint256"
        },
        {
          "internalType": "uint256",
          "name": "_action",
          "type": "uint256"
        }
      ],
      "name": "takeTurn",
      "outputs": [],
      "stateMutability": "nonpayable",
      "type": "function"
    }
  ],
  "bytecode": "0x608060405234801561001057600080fd5b50612749806100206000396000f3fe608060405234801561001057600080fd5b50600436106100935760003560e01c80637634b5b2116100665780637634b5b21461014d5780637aed313b14610169578063c5adf7c9146101a0578063e9240d13146101be578063f711f7ed146101da57610093565b80631b0fc106146100985780633d092b3d146100b45780634768d4ef146100e45780634b49f97a1461011d575b600080fd5b6100b260048036038101906100ad9190611733565b6101f6565b005b6100ce60048036038101906100c99190611733565b61048e565b6040516100db9190611897565b60405180910390f35b6100fe60048036038101906100f99190611733565b610683565b6040516101149a999897969594939291906118e0565b60405180910390f35b610137600480360381019061013291906119a8565b61077e565b6040516101449190611b15565b60405180910390f35b61016760048036038101906101629190611c6c565b61090c565b005b610183600480360381019061017e91906119a8565b610b34565b604051610197989796959493929190611cff565b60405180910390f35b6101a8610c31565b6040516101b59190611d84565b60405180910390f35b6101d860048036038101906101d391906119a8565b610c37565b005b6101f460048036038101906101ef9190611d9f565b610f67565b005b60006001600083815260200190815260200160002090503373ffffffffffffffffffffffffffffffffffffffff168160020160009054906101000a900473ffffffffffffffffffffffffffffffffffffffff1673ffffffffffffffffffffffffffffffffffffffff161461029f576040517f08c379a000000000000000000000000000000000000000000000000000000000815260040161029690611e2b565b60405180910390fd5b8060030160149054906101000a900460ff16156102f1576040517f08c379a00000000000000000000000000000000000000000000000000000000081526004016102e890611e97565b60405180910390fd5b600073ffffffffffffffffffffffffffffffffffffffff168160060160029054906101000a900473ffffffffffffffffffffffffffffffffffffffff1673ffffffffffffffffffffffffffffffffffffffff1614610384576040517f08c379a000000000000000000000000000000000000000000000000000000000815260040161037b90611f03565b60405180910390fd5b60018160030160146101000a81548160ff0219169083151502179055508060010160009054906101000a900473ffffffffffffffffffffffffffffffffffffffff168160030160006101000a81548173ffffffffffffffffffffffffffffffffffffffff021916908373ffffffffffffffffffffffffffffffffffffffff160217905550817f0db852497beb4f117053b561916aae987f88d666bac5179bd210c99a9e5aa1758260010160009054906101000a900473ffffffffffffffffffffffffffffffffffffffff168360020160009054906101000a900473ffffffffffffffffffffffffffffffffffffffff16604051610482929190611f23565b60405180910390a25050565b6104966115db565b6001600083815260200190815260200160002060405180610140016040529081600082015481526020016001820160009054906101000a900473ffffffffffffffffffffffffffffffffffffffff1673ffffffffffffffffffffffffffffffffffffffff1673ffffffffffffffffffffffffffffffffffffffff1681526020016002820160009054906101000a900473ffffffffffffffffffffffffffffffffffffffff1673ffffffffffffffffffffffffffffffffffffffff1673ffffffffffffffffffffffffffffffffffffffff1681526020016003820160009054906101000a900473ffffffffffffffffffffffffffffffffffffffff1673ffffffffffffffffffffffffffffffffffffffff1673ffffffffffffffffffffffffffffffffffffffff1681526020016003820160149054906101000a900460ff1615151515815260200160048201548152602001600582015481526020016006820160009054906101000a900460ff161515151581526020016006820160019054906101000a900460ff161515151581526020016006820160029054906101000a900473ffffffffffffffffffffffffffffffffffffffff1673ffffffffffffffffffffffffffffffffffffffff1673ffffffffffffffffffffffffffffffffffffffff16815250509050919050565b60016020528060005260406000206000915090508060000154908060010160009054906101000a900473ffffffffffffffffffffffffffffffffffffffff16908060020160009054906101000a900473ffffffffffffffffffffffffffffffffffffffff16908060030160009054906101000a900473ffffffffffffffffffffffffffffffffffffffff16908060030160149054906101000a900460ff16908060040154908060050154908060060160009054906101000a900460ff16908060060160019054906101000a900460ff16908060060160029054906101000a900473ffffffffffffffffffffffffffffffffffffffff1690508a565b61078661168c565b6000808373ffffffffffffffffffffffffffffffffffffffff1673ffffffffffffffffffffffffffffffffffffffff168152602001908152602001600020604051806101000160405290816000820160009054906101000a900473ffffffffffffffffffffffffffffffffffffffff1673ffffffffffffffffffffffffffffffffffffffff1673ffffffffffffffffffffffffffffffffffffffff16815260200160018201805461083690611f7b565b80601f016020809104026020016040519081016040528092919081815260200182805461086290611f7b565b80156108af5780601f10610884576101008083540402835291602001916108af565b820191906000526020600020905b81548152906001019060200180831161089257829003601f168201915b5050505050815260200160028201548152602001600382015481526020016004820154815260200160058201548152602001600682015481526020016007820160009054906101000a900460ff1615151515815250509050919050565b6000803373ffffffffffffffffffffffffffffffffffffffff1673ffffffffffffffffffffffffffffffffffffffff16815260200190815260200160002060070160009054906101000a900460ff161561099b576040517f08c379a000000000000000000000000000000000000000000000000000000000815260040161099290611ff8565b60405180910390fd5b6040518061010001604052803373ffffffffffffffffffffffffffffffffffffffff16815260200182815260200160648152602001600f8152602001600581526020016000815260200160008152602001600115158152506000803373ffffffffffffffffffffffffffffffffffffffff1673ffffffffffffffffffffffffffffffffffffffff16815260200190815260200160002060008201518160000160006101000a81548173ffffffffffffffffffffffffffffffffffffffff021916908373ffffffffffffffffffffffffffffffffffffffff1602179055506020820151816001019081610a8d91906121c4565b5060408201518160020155606082015181600301556080820151816004015560a0820151816005015560c0820151816006015560e08201518160070160006101000a81548160ff0219169083151502179055509050503373ffffffffffffffffffffffffffffffffffffffff167fc8a8e76c5425fd392fdf89c8569b8599e5514c054c90aad6aee67b262ae7eed882604051610b299190612296565b60405180910390a250565b60006020528060005260406000206000915090508060000160009054906101000a900473ffffffffffffffffffffffffffffffffffffffff1690806001018054610b7d90611f7b565b80601f0160208091040260200160405190810160405280929190818152602001828054610ba990611f7b565b8015610bf65780601f10610bcb57610100808354040283529160200191610bf6565b820191906000526020600020905b815481529060010190602001808311610bd957829003601f168201915b5050505050908060020154908060030154908060040154908060050154908060060154908060070160009054906101000a900460ff16905088565b60025481565b6000803373ffffffffffffffffffffffffffffffffffffffff1673ffffffffffffffffffffffffffffffffffffffff16815260200190815260200160002060070160009054906101000a900460ff16610cc5576040517f08c379a0000000000000000000000000000000000000000000000000000000008152600401610cbc90612304565b60405180910390fd5b6000808273ffffffffffffffffffffffffffffffffffffffff1673ffffffffffffffffffffffffffffffffffffffff16815260200190815260200160002060070160009054906101000a900460ff16610d53576040517f08c379a0000000000000000000000000000000000000000000000000000000008152600401610d4a90612370565b60405180910390fd5b8073ffffffffffffffffffffffffffffffffffffffff163373ffffffffffffffffffffffffffffffffffffffff1603610dc1576040517f08c379a0000000000000000000000000000000000000000000000000000000008152600401610db8906123dc565b60405180910390fd5b600060026000815480929190610dd69061242b565b919050559050806001600083815260200190815260200160002060000181905550336001600083815260200190815260200160002060010160006101000a81548173ffffffffffffffffffffffffffffffffffffffff021916908373ffffffffffffffffffffffffffffffffffffffff160217905550816001600083815260200190815260200160002060020160006101000a81548173ffffffffffffffffffffffffffffffffffffffff021916908373ffffffffffffffffffffffffffffffffffffffff16021790555060006001600083815260200190815260200160002060030160146101000a81548160ff02191690831515021790555060646001600083815260200190815260200160002060040181905550606460016000838152602001908152602001600020600501819055508173ffffffffffffffffffffffffffffffffffffffff163373ffffffffffffffffffffffffffffffffffffffff16827fbaa6e4dbec861c736f4ebaa1b7d0d19757de58d21ca7417d3cf2b6e2284794f060405160405180910390a45050565b60006001600084815260200190815260200160002090508060030160149054906101000a900460ff16610fcf576040517f08c379a0000000000000000000000000000000000000000000000000000000008152600401610fc6906124bf565b60405180910390fd5b3373ffffffffffffffffffffffffffffffffffffffff168160030160009054906101000a900473ffffffffffffffffffffffffffffffffffffffff1673ffffffffffffffffffffffffffffffffffffffff1614611061576040517f08c379a00000000000000000000000000000000000000000000000000000000081526004016110589061252b565b60405180910390fd5b6000808260010160009054906101000a900473ffffffffffffffffffffffffffffffffffffffff1673ffffffffffffffffffffffffffffffffffffffff163373ffffffffffffffffffffffffffffffffffffffff161490506000840361126a57600b4233876040516020016110d8939291906125b4565b6040516020818303038152906040528051906020012060001c6110fb9190612620565b600a6111079190612651565b915080156111bc578260060160019054906101000a900460ff1615611153576002826111339190612685565b915060008360060160016101000a81548160ff0219169083151502179055505b8183600501541161119b5760008360050181905550611196858460010160009054906101000a900473ffffffffffffffffffffffffffffffffffffffff166113c1565b6111b7565b818360050160008282546111af91906126b6565b925050819055505b611265565b8260060160009054906101000a900460ff1615611200576002826111e09190612685565b915060008360060160006101000a81548160ff0219169083151502179055505b818360040154116112485760008360040181905550611243858460020160009054906101000a900473ffffffffffffffffffffffffffffffffffffffff166113c1565b611264565b8183600401600082825461125c91906126b6565b925050819055505b5b6112ba565b600184036112b957801561129a5760018360060160006101000a81548160ff0219169083151502179055506112b8565b60018360060160016101000a81548160ff0219169083151502179055505b5b5b8260030160149054906101000a900460ff16156113695780611300578260010160009054906101000a900473ffffffffffffffffffffffffffffffffffffffff16611326565b8260020160009054906101000a900473ffffffffffffffffffffffffffffffffffffffff165b8360030160006101000a81548173ffffffffffffffffffffffffffffffffffffffff021916908373ffffffffffffffffffffffffffffffffffffffff1602179055505b3373ffffffffffffffffffffffffffffffffffffffff16857feb49e15a7bfd3783d6512730aae8dcf56a9112db1c31610b8773568266cd1cc386856040516113b29291906126ea565b60405180910390a35050505050565b600060016000848152602001908152602001600020905060008160030160146101000a81548160ff021916908315150217905550818160060160026101000a81548173ffffffffffffffffffffffffffffffffffffffff021916908373ffffffffffffffffffffffffffffffffffffffff16021790555060008160010160009054906101000a900473ffffffffffffffffffffffffffffffffffffffff1673ffffffffffffffffffffffffffffffffffffffff168373ffffffffffffffffffffffffffffffffffffffff16146114bb578160010160009054906101000a900473ffffffffffffffffffffffffffffffffffffffff166114e1565b8160020160009054906101000a900473ffffffffffffffffffffffffffffffffffffffff165b90506000808473ffffffffffffffffffffffffffffffffffffffff1673ffffffffffffffffffffffffffffffffffffffff16815260200190815260200160002060050160008154809291906115359061242b565b91905055506000808273ffffffffffffffffffffffffffffffffffffffff1673ffffffffffffffffffffffffffffffffffffffff168152602001908152602001600020600601600081548092919061158c9061242b565b91905055508273ffffffffffffffffffffffffffffffffffffffff16847f6a0c15458ff679e1dba1fc6bd7dfac1b9749d252e4766628fe55154339a080bc60405160405180910390a350505050565b60405180610140016040528060008152602001600073ffffffffffffffffffffffffffffffffffffffff168152602001600073ffffffffffffffffffffffffffffffffffffffff168152602001600073ffffffffffffffffffffffffffffffffffffffff1681526020016000151581526020016000815260200160008152602001600015158152602001600015158152602001600073ffffffffffffffffffffffffffffffffffffffff1681525090565b604051806101000160405280600073ffffffffffffffffffffffffffffffffffffffff1681526020016060815260200160008152602001600081526020016000815260200160008152602001600081526020016000151581525090565b6000604051905090565b600080fd5b600080fd5b6000819050919050565b611710816116fd565b811461171b57600080fd5b50565b60008135905061172d81611707565b92915050565b600060208284031215611749576117486116f3565b5b60006117578482850161171e565b91505092915050565b611769816116fd565b82525050565b600073ffffffffffffffffffffffffffffffffffffffff82169050919050565b600061179a8261176f565b9050919050565b6117aa8161178f565b82525050565b60008115159050919050565b6117c5816117b0565b82525050565b610140820160008201516117e26000850182611760565b5060208201516117f560208501826117a1565b50604082015161180860408501826117a1565b50606082015161181b60608501826117a1565b50608082015161182e60808501826117bc565b5060a082015161184160a0850182611760565b5060c082015161185460c0850182611760565b5060e082015161186760e08501826117bc565b5061010082015161187c6101008501826117bc565b506101208201516118916101208501826117a1565b50505050565b6000610140820190506118ad60008301846117cb565b92915050565b6118bc816116fd565b82525050565b6118cb8161178f565b82525050565b6118da816117b0565b82525050565b6000610140820190506118f6600083018d6118b3565b611903602083018c6118c2565b611910604083018b6118c2565b61191d606083018a6118c2565b61192a60808301896118d1565b61193760a08301886118b3565b61194460c08301876118b3565b61195160e08301866118d1565b61195f6101008301856118d1565b61196d6101208301846118c2565b9b9a5050505050505050505050565b6119858161178f565b811461199057600080fd5b50565b6000813590506119a28161197c565b92915050565b6000602082840312156119be576119bd6116f3565b5b60006119cc84828501611993565b91505092915050565b600081519050919050565b600082825260208201905092915050565b60005b83811015611a0f5780820151818401526020810190506119f4565b60008484015250505050565b6000601f19601f8301169050919050565b6000611a37826119d5565b611a4181856119e0565b9350611a518185602086016119f1565b611a5a81611a1b565b840191505092915050565b600061010083016000830151611a7e60008601826117a1565b5060208301518482036020860152611a968282611a2c565b9150506040830151611aab6040860182611760565b506060830151611abe6060860182611760565b506080830151611ad16080860182611760565b5060a0830151611ae460a0860182611760565b5060c0830151611af760c0860182611760565b5060e0830151611b0a60e08601826117bc565b508091505092915050565b60006020820190508181036000830152611b2f8184611a65565b905092915050565b600080fd5b600080fd5b7f4e487b7100000000000000000000000000000000000000000000000000000000600052604160045260246000fd5b611b7982611a1b565b810181811067ffffffffffffffff82111715611b9857611b97611b41565b5b80604052505050565b6000611bab6116e9565b9050611bb78282611b70565b919050565b600067ffffffffffffffff821115611bd757611bd6611b41565b5b611be082611a1b565b9050602081019050919050565b82818337600083830152505050565b6000611c0f611c0a84611bbc565b611ba1565b905082815260208101848484011115611c2b57611c2a611b3c565b5b611c36848285611bed565b509392505050565b600082601f830112611c5357611c52611b37565b5b8135611c63848260208601611bfc565b91505092915050565b600060208284031215611c8257611c816116f3565b5b600082013567ffffffffffffffff811115611ca057611c9f6116f8565b5b611cac84828501611c3e565b91505092915050565b600082825260208201905092915050565b6000611cd1826119d5565b611cdb8185611cb5565b9350611ceb8185602086016119f1565b611cf481611a1b565b840191505092915050565b600061010082019050611d15600083018b6118c2565b8181036020830152611d27818a611cc6565b9050611d3660408301896118b3565b611d4360608301886118b3565b611d5060808301876118b3565b611d5d60a08301866118b3565b611d6a60c08301856118b3565b611d7760e08301846118d1565b9998505050505050505050565b6000602082019050611d9960008301846118b3565b92915050565b60008060408385031215611db657611db56116f3565b5b6000611dc48582860161171e565b9250506020611dd58582860161171e565b9150509250929050565b7f4f6e6c79206f70706f6e656e742063616e206163636570740000000000000000600082015250565b6000611e15601883611cb5565b9150611e2082611ddf565b602082019050919050565b60006020820190508181036000830152611e4481611e08565b9050919050565b7f4d6174636820616c726561647920616374697665000000000000000000000000600082015250565b6000611e81601483611cb5565b9150611e8c82611e4b565b602082019050919050565b60006020820190508181036000830152611eb081611e74565b9050919050565b7f4d6174636820616c726561647920656e64656400000000000000000000000000600082015250565b6000611eed601383611cb5565b9150611ef882611eb7565b602082019050919050565b60006020820190508181036000830152611f1c81611ee0565b9050919050565b6000604082019050611f3860008301856118c2565b611f4560208301846118c2565b9392505050565b7f4e487b7100000000000000000000000000000000000000000000000000000000600052602260045260246000fd5b60006002820490506001821680611f9357607f821691505b602082108103611fa657611fa5611f4c565b5b50919050565b7f4669676874657220616c72656164792065786973747300000000000000000000600082015250565b6000611fe2601683611cb5565b9150611fed82611fac565b602082019050919050565b6000602082019050818103600083015261201181611fd5565b9050919050565b60008190508160005260206000209050919050565b60006020601f8301049050919050565b600082821b905092915050565b60006008830261207a7fffffffffffffffffffffffffffffffffffffffffffffffffffffffffffffffff8261203d565b612084868361203d565b95508019841693508086168417925050509392505050565b6000819050919050565b60006120c16120bc6120b7846116fd565b61209c565b6116fd565b9050919050565b6000819050919050565b6120db836120a6565b6120ef6120e7826120c8565b84845461204a565b825550505050565b600090565b6121046120f7565b61210f8184846120d2565b505050565b5b81811015612133576121286000826120fc565b600181019050612115565b5050565b601f8211156121785761214981612018565b6121528461202d565b81016020851015612161578190505b61217561216d8561202d565b830182612114565b50505b505050565b600082821c905092915050565b600061219b6000198460080261217d565b1980831691505092915050565b60006121b4838361218a565b9150826002028217905092915050565b6121cd826119d5565b67ffffffffffffffff8111156121e6576121e5611b41565b5b6121f08254611f7b565b6121fb828285612137565b600060209050601f83116001811461222e576000841561221c578287015190505b61222685826121a8565b86555061228e565b601f19841661223c86612018565b60005b828110156122645784890151825560018201915060208501945060208101905061223f565b86831015612281578489015161227d601f89168261218a565b8355505b6001600288020188555050505b505050505050565b600060208201905081810360008301526122b08184611cc6565b905092915050565b7f4372656174652061206669676874657220666972737400000000000000000000600082015250565b60006122ee601683611cb5565b91506122f9826122b8565b602082019050919050565b6000602082019050818103600083015261231d816122e1565b9050919050565b7f4f70706f6e656e7420646f6573206e6f74206861766520612066696768746572600082015250565b600061235a602083611cb5565b915061236582612324565b602082019050919050565b600060208201905081810360008301526123898161234d565b9050919050565b7f43616e6e6f74206368616c6c656e676520796f757273656c6600000000000000600082015250565b60006123c6601983611cb5565b91506123d182612390565b602082019050919050565b600060208201905081810360008301526123f5816123b9565b9050919050565b7f4e487b7100000000000000000000000000000000000000000000000000000000600052601160045260246000fd5b6000612436826116fd565b91507fffffffffffffffffffffffffffffffffffffffffffffffffffffffffffffffff8203612468576124676123fc565b5b600182019050919050565b7f4d61746368206e6f742061637469766500000000000000000000000000000000600082015250565b60006124a9601083611cb5565b91506124b482612473565b602082019050919050565b600060208201905081810360008301526124d88161249c565b9050919050565b7f4e6f7420796f7572207475726e00000000000000000000000000000000000000600082015250565b6000612515600d83611cb5565b9150612520826124df565b602082019050919050565b6000602082019050818103600083015261254481612508565b9050919050565b6000819050919050565b612566612561826116fd565b61254b565b82525050565b60008160601b9050919050565b60006125848261256c565b9050919050565b600061259682612579565b9050919050565b6125ae6125a98261178f565b61258b565b82525050565b60006125c08286612555565b6020820191506125d0828561259d565b6014820191506125e08284612555565b602082019150819050949350505050565b7f4e487b7100000000000000000000000000000000000000000000000000000000600052601260045260246000fd5b600061262b826116fd565b9150612636836116fd565b925082612646576126456125f1565b5b828206905092915050565b600061265c826116fd565b9150612667836116fd565b925082820190508082111561267f5761267e6123fc565b5b92915050565b6000612690826116fd565b915061269b836116fd565b9250826126ab576126aa6125f1565b5b828204905092915050565b60006126c1826116fd565b91506126cc836116fd565b92508282039050818111156126e4576126e36123fc565b5b92915050565b60006040820190506126ff60008301856118b3565b61270c60208301846118b3565b939250505056fea2646970667358221220f0edfb3a03c61b9ae86d10d96b2754117b19616ab882a930282641da7e0bebc864736f6c63430008140033",
  "linkReferences": {},
  "deployedLinkReferences": {}
}